{
  "_format": "hh-sol-artifact-1",
  "contractName": "HealthData",
  "sourceName": "contracts/HealthManagement.sol",
  "abi": [
    {
      "anonymous": false,
      "inputs": [
        {
          "indexed": true,
          "internalType": "bytes32",
          "name": "recordId",
          "type": "bytes32"
        },
        {
          "indexed": true,
          "internalType": "address",
          "name": "owner",
          "type": "address"
        }
      ],
      "name": "RecordCreated",
      "type": "event"
    },
    {
      "anonymous": false,
      "inputs": [
        {
          "indexed": true,
          "internalType": "bytes32",
          "name": "recordId",
          "type": "bytes32"
        },
        {
          "indexed": false,
          "internalType": "string",
          "name": "data",
          "type": "string"
        }
      ],
      "name": "RecordUpdated",
      "type": "event"
    },
    {
      "inputs": [
        {
          "internalType": "bytes32",
          "name": "recordId",
          "type": "bytes32"
        },
        {
          "internalType": "string",
          "name": "data",
          "type": "string"
        }
      ],
      "name": "createRecord",
      "outputs": [],
      "stateMutability": "nonpayable",
      "type": "function"
    },
    {
      "inputs": [
        {
          "internalType": "bytes32",
          "name": "recordId",
          "type": "bytes32"
        }
      ],
      "name": "getRecord",
      "outputs": [
        {
          "internalType": "string",
          "name": "",
          "type": "string"
        },
        {
          "internalType": "address",
          "name": "",
          "type": "address"
        }
      ],
      "stateMutability": "view",
      "type": "function"
    },
    {
      "inputs": [
        {
          "internalType": "bytes32",
          "name": "",
          "type": "bytes32"
        }
      ],
      "name": "records",
      "outputs": [
        {
          "internalType": "string",
          "name": "data",
          "type": "string"
        },
        {
          "internalType": "address",
          "name": "owner",
          "type": "address"
        },
        {
          "internalType": "bool",
          "name": "exists",
          "type": "bool"
        }
      ],
      "stateMutability": "view",
      "type": "function"
    },
    {
      "inputs": [
        {
          "internalType": "bytes32",
          "name": "recordId",
          "type": "bytes32"
        },
        {
          "internalType": "string",
          "name": "data",
          "type": "string"
        }
      ],
      "name": "updateRecord",
      "outputs": [],
      "stateMutability": "nonpayable",
      "type": "function"
    }
  ],
  "bytecode": "0x6080604052348015600f57600080fd5b50610cfd8061001f6000396000f3fe608060405234801561001057600080fd5b506004361061004c5760003560e01c806301e6472514610051578063213681cd1461008357806388cdf2e0146100b4578063fe2106b0146100d0575b600080fd5b61006b600480360381019061006691906105cd565b6100ec565b60405161007a939291906106e6565b60405180910390f35b61009d600480360381019061009891906105cd565b6101cb565b6040516100ab929190610724565b60405180910390f35b6100ce60048036038101906100c99190610889565b610311565b005b6100ea60048036038101906100e59190610889565b61041f565b005b600060205280600052604060002060009150905080600001805461010f90610914565b80601f016020809104026020016040519081016040528092919081815260200182805461013b90610914565b80156101885780601f1061015d57610100808354040283529160200191610188565b820191906000526020600020905b81548152906001019060200180831161016b57829003601f168201915b5050505050908060010160009054906101000a900473ffffffffffffffffffffffffffffffffffffffff16908060010160149054906101000a900460ff16905083565b6060600080600084815260200190815260200160002060010160149054906101000a900460ff16610231576040517f08c379a000000000000000000000000000000000000000000000000000000000815260040161022890610991565b60405180910390fd5b60008084815260200190815260200160002060000160008085815260200190815260200160002060010160009054906101000a900473ffffffffffffffffffffffffffffffffffffffff1681805461028890610914565b80601f01602080910402602001604051908101604052809291908181526020018280546102b490610914565b80156103015780601f106102d657610100808354040283529160200191610301565b820191906000526020600020905b8154815290600101906020018083116102e457829003601f168201915b5050505050915091509150915091565b60405180606001604052808281526020013373ffffffffffffffffffffffffffffffffffffffff16815260200160011515815250600080848152602001908152602001600020600082015181600001908161036c9190610b67565b5060208201518160010160006101000a81548173ffffffffffffffffffffffffffffffffffffffff021916908373ffffffffffffffffffffffffffffffffffffffff16021790555060408201518160010160146101000a81548160ff0219169083151502179055509050503373ffffffffffffffffffffffffffffffffffffffff16827ffc39d54de380118148fa225c58baeff6e4f590a1b85797533822b367bfe982c060405160405180910390a35050565b60008083815260200190815260200160002060010160149054906101000a900460ff16610481576040517f08c379a000000000000000000000000000000000000000000000000000000000815260040161047890610991565b60405180910390fd5b60008083815260200190815260200160002060010160009054906101000a900473ffffffffffffffffffffffffffffffffffffffff1673ffffffffffffffffffffffffffffffffffffffff163373ffffffffffffffffffffffffffffffffffffffff1614610524576040517f08c379a000000000000000000000000000000000000000000000000000000000815260040161051b90610c85565b60405180910390fd5b8060008084815260200190815260200160002060000190816105469190610b67565b50817fc2792f3dddd5fd6ca0ba6d9d105caa850f2d33bb2ed740b980018fe25fb7fcbc826040516105779190610ca5565b60405180910390a25050565b6000604051905090565b600080fd5b600080fd5b6000819050919050565b6105aa81610597565b81146105b557600080fd5b50565b6000813590506105c7816105a1565b92915050565b6000602082840312156105e3576105e261058d565b5b60006105f1848285016105b8565b91505092915050565b600081519050919050565b600082825260208201905092915050565b60005b83811015610634578082015181840152602081019050610619565b60008484015250505050565b6000601f19601f8301169050919050565b600061065c826105fa565b6106668185610605565b9350610676818560208601610616565b61067f81610640565b840191505092915050565b600073ffffffffffffffffffffffffffffffffffffffff82169050919050565b60006106b58261068a565b9050919050565b6106c5816106aa565b82525050565b60008115159050919050565b6106e0816106cb565b82525050565b600060608201905081810360008301526107008186610651565b905061070f60208301856106bc565b61071c60408301846106d7565b949350505050565b6000604082019050818103600083015261073e8185610651565b905061074d60208301846106bc565b9392505050565b600080fd5b600080fd5b7f4e487b7100000000000000000000000000000000000000000000000000000000600052604160045260246000fd5b61079682610640565b810181811067ffffffffffffffff821117156107b5576107b461075e565b5b80604052505050565b60006107c8610583565b90506107d4828261078d565b919050565b600067ffffffffffffffff8211156107f4576107f361075e565b5b6107fd82610640565b9050602081019050919050565b82818337600083830152505050565b600061082c610827846107d9565b6107be565b90508281526020810184848401111561084857610847610759565b5b61085384828561080a565b509392505050565b600082601f8301126108705761086f610754565b5b8135610880848260208601610819565b91505092915050565b600080604083850312156108a05761089f61058d565b5b60006108ae858286016105b8565b925050602083013567ffffffffffffffff8111156108cf576108ce610592565b5b6108db8582860161085b565b9150509250929050565b7f4e487b7100000000000000000000000000000000000000000000000000000000600052602260045260246000fd5b6000600282049050600182168061092c57607f821691505b60208210810361093f5761093e6108e5565b5b50919050565b7f5265636f726420646f6573206e6f742065786973740000000000000000000000600082015250565b600061097b601583610605565b915061098682610945565b602082019050919050565b600060208201905081810360008301526109aa8161096e565b9050919050565b60008190508160005260206000209050919050565b60006020601f8301049050919050565b600082821b905092915050565b600060088302610a137fffffffffffffffffffffffffffffffffffffffffffffffffffffffffffffffff826109d6565b610a1d86836109d6565b95508019841693508086168417925050509392505050565b6000819050919050565b6000819050919050565b6000610a64610a5f610a5a84610a35565b610a3f565b610a35565b9050919050565b6000819050919050565b610a7e83610a49565b610a92610a8a82610a6b565b8484546109e3565b825550505050565b600090565b610aa7610a9a565b610ab2818484610a75565b505050565b5b81811015610ad657610acb600082610a9f565b600181019050610ab8565b5050565b601f821115610b1b57610aec816109b1565b610af5846109c6565b81016020851015610b04578190505b610b18610b10856109c6565b830182610ab7565b50505b505050565b600082821c905092915050565b6000610b3e60001984600802610b20565b1980831691505092915050565b6000610b578383610b2d565b9150826002028217905092915050565b610b70826105fa565b67ffffffffffffffff811115610b8957610b8861075e565b5b610b938254610914565b610b9e828285610ada565b600060209050601f831160018114610bd15760008415610bbf578287015190505b610bc98582610b4b565b865550610c31565b601f198416610bdf866109b1565b60005b82811015610c0757848901518255600182019150602085019450602081019050610be2565b86831015610c245784890151610c20601f891682610b2d565b8355505b6001600288020188555050505b505050505050565b7f4e6f7420617574686f72697a6564000000000000000000000000000000000000600082015250565b6000610c6f600e83610605565b9150610c7a82610c39565b602082019050919050565b60006020820190508181036000830152610c9e81610c62565b9050919050565b60006020820190508181036000830152610cbf8184610651565b90509291505056fea2646970667358221220bce2b6e2afc2163123afd3facccd8228b59706833250173775eab18a783c13ab64736f6c634300081a0033",
  "linkReferences": {},
  "deployedLinkReferences": {}
}